:100000000C944A060C9491060C9491060C9482313F
:100010000C9491060C9491060C9491060C94910604
:100020000C9491060C9491060C94B3240C946F24B8
:100030000C9494270C9491060C9491060C949106C0
:100040000C9491060C9491060C9491060C949106D4
:100050000C9491060C948C250C9491060C949106AA
:100060000C9491060C9491060C9491060C949106B4
:100070000C9491060C9491060C9491060C949106A4
:100080000C9491060C9491060C9491060C94910694
:100090000C9491060C9491060C9491060C94910684
:1000A0000C9491060C9491060C949106002200FF8A
:1000B000FFFF0000000000222BFFFFFF00000000F8
:1000C000002255FFFFFF00000000002280FFFFFF1D
:1000D0000000000005010902A10185020901A1003B
:1000E00005091901290815002501950875018102E6
:1000F0000501093009311581257F950275088106B2
:1001000009381581257F950175088106050C0A3887
:10011000021581257F950175088106C0C00501097A
:1001200080A101850319012AB700150126B70095A2
:100130000175108100C0050C0901A1018504190198
:100140002AA002150126A002950175108100C006A3
:1001500060FF0961A1010962150026FF0095207565
:100160000881020963150026FF0095207508910299
:10017000C005010906A101050719E029E7150025B9
:10018000019508750181029501750881010507191E
:100190000029FF150026FF00950675088100050857
:1001A00019012905950575019102950175039101C4
:1001B000C00000000000000000000000000000007F
:1001C000000000000000000000000000000000002F
:1001D00000000000007E0F00D4FFFFFFC7000000FA
:1001E0007800000000000000002A2B28000000001A
:1001F00000000000000000000000000029000000D6
:10020000002C1E3420212224342627252E362D377B
:1002100038271E1F202122232425263333362E374C
:10022000381F0405060708090A0B0C0D0E0F1011E4
:1002300012131415161718191A1B1C1D2F313023F1
:100240002D350405060708090A0B0C0D0E0F1011B9
:1002500012131415161718191A1B1C1D2F313035BF
:100260004C00DA0281FFD9F1DB20A4A62EAF00A05A
:10027000C000A1C800AED580A81FD300408D1420B7
:1002800000CA00C000B600AC000000616263646593
:10029000666768696A6B6C6D6E6F70717273747586
:1002A000767778797A313233343536373839305297
:1002B0004542545F2D3D5B5D5C233B27602C2E2F18
:1002C00020202700204B00202043004B6579203A56
:1002D00020205200204300204D0020436F002020AA
:1002E000440030302020530020202020204350495B
:1002F0000042616C6C3A00808182838485868788A5
:10030000898A8B8C8D8E8F9091929394A0A1A2A3B9
:10031000A4A5A6A7A8A9AAABACADAEAFB0B1B2B325
:10032000B4C0C1C2C3C4C5C6C7C8C9CACBCCCDCE70
:10033000CFD0D1D2D3D400000101010101010101CC
:100340000102020202020202020203030303030388
:100350000303040404040404040505050505060656
:100360000606060707070707080808080909090914
:100370000A0A0A0B0B0B0C0C0C0D0D0D0E0E0E0FBA
:100380000F0F10101111111212131314141515164A
:10039000161717181819191A1A1B1B1C1D1D1E1EBB
:1003A0001F2020212222232424252626272829290C
:1003B0002A2B2C2D2D2E2F30313232333435363737
:1003C00038393A3B3C3D3E3F404142434445464735
:1003D00048494A4C4D4E4F50515354555658595A0E
:1003E0005B5D5E5F616264656668696B6C6D6F70B2
:1003F00072737577787A7B7D7E8082838587888A21
:100400008C8E8F91939596989A9C9EA0A2A3A5A757
:10041000A9ABADAFB1B3B5B7BABCBEC0C2C4C6C953
:10042000CBCDCFD1D4D6D8DBDDDFE2E4E7E9EBEE0C
:10043000F0F3F5F8FAFDFF00AF00AE29001E001F33
:1004400000000020002100220000002B0014001AF0
:100450000000000800150017000000E0000400166E
:10046000000000070009000A000000E1001D001B59
:100470000000000600190005003000E000E000E286
:10048000000000E30035418B422C432D002700265D
:1004900000000025002400230000002F001300129C
:1004A0000000000C0018001C000000340033000F96
:1004B0000000000E000D000B000000870038003720
:1004C0000000003600100011003200E400E60001D8
:1004D0000000000100010028002A0029020000009D
:1004E000000000000000000000000001000000000B
:1004F00000000000000000000000000100000000FB
:100500000000003000300200000000010000000088
:100510000000003200320200000100010001000171
:1005200000000001000100010001002E0001002672
:1005300000000025002400530000000100010023FA
:100540000000002200210001000000010001002045
:100550000000001F001E0001000000010001003625
:1005600000000037002700010089000100010001A0
:100570000000000100010001000100010001000174
:1005800000000001000100010000001050450F00B4
:100590000000000000000000000000010004010055
:1005A000000000000010500000000001001D011BB1
:1005B0000100000601190110501050010001000156
:1005C0000000000100010001000100010001000124
:1005D000000000010001000100000001004B004D7F
:1005E00000000052004A00F800000001004E004FD9
:1005F00000000051005000F70000000100F600ACC0
:100600005D0000F500F400AB5D1050010001000139
:100610000000000100010001004C0001003A003B15
:100620000000003C003D003E0000000100B15DAF55
:100630005D000001004600480000000100B25DB00E
:100640005D0000010049001150000001000100019F
:1006500000000001000100105012500100010001D3
:1006600000000001000100010001004400430042BD
:10067000000000410040003F00000045000100A9CB
:100680005D0000A75DA85DAA5D0000A55DA9000151
:10069000000000AD00010001000000A65DAA00AB53
:1006A000000000AE00AC00AD00A800DE5C0100015F
:1006B000000000010001002A00010009025B0003A4
:1006C0000100A0FA09040000010301010009211141
:1006D0000100012240000705810308000A09040106
:1006E000000203000000092111010001222200077D
:1006F000058203200001070503032000010904020D
:10070000000103000000092111010001227B000704
:1007100005840320000A1201000200000008575956
:10072000000101000102000114034B006500790083
:10073000620061006C006C003600310000001003A4
:1007400059006F0077006B006500650073000000C2
:10075000040309040000000000003E5B4F5B3E0004
:100760003E6B4F6B3E001C3E7C3E1C00183C7E3CAA
:1007700018001C577D571C001C5E7F5E1C00001873
:100780003C180000FFE7C3E7FF0000182418000032
:10079000FFE7DBE7FF0030483A060E0026297929FB
:1007A0002600407F05050700407F05253F005A3C95
:1007B000E73C5A007F3E1C1C0800081C1C3E7F00C2
:1007C00014227F2214005F5F005F5F0006097F0133
:1007D0007F00006689956A0060606060600094A296
:1007E000FFA2940008047E04080010207E20100060
:1007F00008082A1C0800081C2A0808001E101010EF
:1008000010000C1E0C1E0C0030383E383000060E56
:100810003E0E060000000000000000005F00000027
:10082000000700070000147F147F1400242A7F2A89
:100830001200231308646200364956205000000855
:1008400007030000001C224100000041221C0000A0
:100850002A1C7F1C2A0008083E080800008070300F
:100860000000080808080800000060600000201070
:10087000080402003E5149453E0000427F4000000E
:100880007249494946002141494D33001814127FED
:1008900010002745454539003C4A4949310041216E
:1008A00011090700364949493600464949291E00C1
:1008B0000000140000000040340000000008142272
:1008C0004100141414141400004122140800020101
:1008D000590906003E415D594E007C1211127C0000
:1008E0007F49494936003E41414122007F41414113
:1008F0003E007F49494941007F09090901003E4105
:10090000415173007F0808087F0000417F410000CB
:100910002040413F01007F08142241007F404040B9
:1009200040007F021C027F007F0408107F003E41D0
:1009300041413E007F09090906003E4151215E0008
:100940007F091929460026494949320003017F01E0
:1009500003003F4040403F001F2040201F003F4019
:1009600038403F0063140814630003047804030054
:100970006159494D4300007F414141000204081084
:100980002000004141417F00040201020400404078
:100990004040400000030708000020545478400005
:1009A0007F284444380038444444280038444428CC
:1009B0007F0038545454180000087E09020018249F
:1009C000241C78007F080404780000447D40000067
:1009D0002040403D00007F102844000000417F403F
:1009E00000007C04780478007C0804047800384413
:1009F000444438007C1824241800182424187C004F
:100A00007C080404080048545454240004043F445F
:100A100024003C4040207C001C2040201C003C4026
:100A200030403C004428102844004C9090907C00BA
:100A30004464544C44000008364100000000770034
:100A400000000041360800000201020402003C26BA
:100A500023263C0000000000000000000000000011
:100A6000000000000000000000000000C0F0F88C52
:100A700086C6E7FFFFFFFFFFFFFEFCFCF8E08000FB
:100A80000000F0F0F00000C0E0F070700000000026
:100A90000000000000000000000000000000000056
:100AA0000000F8F8F800000000000000000000005E
:100AB0000000000000000000F8F8F80000F8F8F866
:100AC0000000000000000000000000000000000026
:100AD0000000E0F0F0F0E0ECEEF7F37020007C7C3A
:100AE0007C7E007E7E7E7F7F7F000080C0E07E5B1C
:100AF0004F5BFEC00000C000DCD7DEDEDED7DC00CE
:100B0000C000000000000000000000000000000025
:100B100000000000000000000000000000000000D5
:100B2000000000000080E07078686C64C7C7C7C729
:100B3000C7C7E73F1F0F3FFFFFFFFFFFFF3F0F004C
:100B40000000FFFFFF1E3FFFF3E1800000F8FCFE06
:100B50003636363EBCB8000E3EFEF080F0FE3E0E4D
:100B60000000FFFFFF060606FEFEFC7000E6F6F63C
:100B70003636FEFEFC000000FFFFFF0000FFFFFF17
:100B80000000000000000000000000000000000065
:100B900000000F1F3F7F7F7F7F7F3F1E0C001F1FC6
:100BA0001F3F003F3F3F7F7F7F00307B7F783020BB
:100BB0002030787F3B0003000F7F0F0F0F7F0F0067
:100BC0000300000000000000000000000000000022
:100BD0000000000000000000000000000000000015
:100BE000000000003C7F6360E0C0C0C0C0C0C0C067
:100BF000C0FFFFC06030180F0303030100000000B6
:100C000000000303030000000303030300010303C8
:100C1000030303030301007070393F1F0701000045
:100C200000000103030303030303010000010303A6
:100C30000303030301000000030303000003030395
:100C400000000000000000000000000000000000A4
:100C50000000000000000000000000000000000094
:100C60000000000000000000000000000000000084
:100C70000000000000000000000000000000000074
:100C80000000000000000000000000000000000064
:100C90000000000011241FBECFEFDAE0DEBFCDBFA1
:100CA00004B603FE27C08091770690917806A09144
:100CB0007906B0917A068730904BA740B04BD1F4BB
:100CC00010927706109278061092790610927A06A2
:100CD00014BE84B7877F84BF0FB6F894A89580911F
:100CE0006000886180936000109260000FBEE0E0B9
:100CF000F8E3099511E0A0E0B1E0E2ECF7E602C00C
:100D000005900D92AA3EB107D9F726E0AAEEB1E010
:100D100001C01D92A737B207E1F70E94BB270C94D0
:100D20009E330C940000FC01AC014B5F5F4F8FEFD2
:100D300091E32191822728E030E087FF09C0880FE6
:100D4000892721503109C9F7E417F50791F708956C
:100D5000880FF7CFE8EDF0E080818E7F80831092DE
:100D6000E2001092DA001092E100A0EEB0E08C9167
:100D700081608C9380818F77808319BCA7EDB0E070
:100D80008C918E7F8C9380818F7E8083109224043F
:100D900008952091E4003091E50095E6A9012091A5
:100DA000EC00822F817020FF06C08091E80080FF58
:100DB00006C080E008952091E80022FD1AC08091CD
:100DC0003204882389F0853089F08091EB0085FD1D
:100DD0000FC02091E4003091E50042175307F9F26B
:100DE0009150E1F684E0089582E0089583E008954B
:100DF00081E00895EF92FF920F931F93CF937C01B0
:100E00008B010E94C906C82F811117C08091E8008C
:100E100085FD0BC08091E8008E778093E8000E94EA
:100E2000C906882399F3C82F08C0F70181917F0173
:100E30008093F1000150110949F78C2FCF911F9138
:100E40000F91FF90EF9008958091340487FF13C0B5
:100E50008091E80082FF06C08091E8008B77809344
:100E6000E80004C0809132048111F2CF089580918E
:100E700032048823D9F38091E80080FFF8CF809175
:100E8000E8008E77ECCF982F9093E900242F762FEF
:100E900050E0891731F07091EC002091ED005091F5
:100EA000F00021FD07C09F5F973071F78093E90044
:100EB00081E008953091EB003E7F3093EB0030915C
:100EC000ED003D7F3093ED003091EB0031603093C9
:100ED000EB007093EC002093ED005093F000209114
:100EE000EE0027FDE0CF80E00895CF92DF92EF92F1
:100EF000FF920F931F93CF93DF93C8EDD0E08881CB
:100F00008F7E8883E7EDF0E080818160808384E0DC
:100F100082BF81E08093240488818E7F888302EEE3
:100F200010E0F80110821092DA0081EEC82ED12C68
:100F3000F601108288818F77888388818068888312
:100F400088818F7D888319BC1092320410923304FB
:100F5000109231041092300490EEE92EF12CF7013A
:100F600080818B7F808388818160888342E060E01C
:100F700080E00E944307F60180818E7F8083F80124
:100F8000808181608083808188608083F701808197
:100F90008E7F8083888180618883DF91CF911F91CC
:100FA0000F91FF90EF90DF90CF900895FC0180911A
:100FB0003A0490913B0486179707A0F061157105DC
:100FC00029F49091E8009E779093E80090E06115F5
:100FD000710551F4911108C08091E80082FF34C07E
:100FE00080E00895BC01F2CF809132048823C1F1E2
:100FF0008530C1F18091E80083FD30C08091E80028
:1010000082FDEACF8091E80080FFE1CF8091F3007C
:101010002091F200382F6115710519F02830310543
:1010200058F091E02830310509F090E02091E80077
:101030002E772093E800CBCF81918093F10061500F
:1010400071092F5F3F4FE7CF80913204882341F031
:10105000853041F08091E80083FFBECF81E00895A4
:1010600082E0089583E0089508958091270408950B
:1010700087E797E7909301088093000888E19AE05A
:101080000FB6F894A895809360000FBE909360000F
:10109000FFCF2FB7F89460911D0470911E048091CA
:1010A0001F04909120042FBF08959C01FC013296EB
:1010B0009FEF80E04191461751F09F3F19F4411195
:1010C00001C0982F8F5F8630A9F79F3F09F40895DC
:1010D000290F311D97FD3A95F901628308952091FA
:1010E0001A0430911B042817390771F090931B04E0
:1010F00080931A04E0911804F0911904309721F0BC
:101100000084F185E02D0994089520911604309112
:1011100017042817390771F0909317048093160469
:10112000E0911804F0911904309721F00680F781BE
:10113000E02D09940895FA01811101C0FB01099481
:1011400080910B04982F9E7F71F480910B04817025
:10115000826080930B0480910E04893718F088E731
:1011600080930E040895843080F7F5CFAF92BF923C
:10117000DF92EF92FF920F931F93CF93DF93082F8D
:10118000162FE901E42FF0E0E95CFC4F611110C07B
:10119000E4915E2F4E2F4983E8835A83DF91CF91EC
:1011A0001F910F91FF90EF90DF90BF90AF90089547
:1011B000E62EF12C4491D42EE42FF0E026E0829F1D
:1011C000C00111242FEF30E0B9010E94FC32802FC2
:1011D00090E0880F991F55E5569FD001579FB00D9D
:1011E00011248A1B9B0B982F990F890F5901AE1858
:1011F000BF08AE9ED001AF9EB00DBE9EB00D1124B3
:101200005B2F189F80011124012F11275901A01A6B
:10121000B10AAE9E8001AF9E100DBE9E100D11242E
:101220005901A81AB108AE9CC001AF9C900DBE9C9C
:10123000900D1124892F9927281B390B2E9FC0014F
:101240002F9F900D3E9F900D1124E92F6230710564
:10125000A1F050F46115710509F49DCF613071055D
:1012600081F0EB2F512F97CF6430710569F080F03A
:101270006630710509F48FCFF4CFE42F4B2F592F2F
:101280008ACFE42F412F87CFEB2F542F492F83CFC5
:101290004B2F5D2DE12F7FCFCF93DF93EDE3F4E074
:1012A00083819481A581B681E90188839983AA838A
:1012B000BB831482138216821582DF91CF91089529
:1012C00080E00895E0917802EB30A4F48AE0E8022F
:1012D000F0011124E65FFE4F0084F185E02D309788
:1012E00049F02BE932E040917A026BE772E080919D
:1012F000790209940895E5E6F2E0848980933E013D
:1013000085898093550108959091D20292FF06C07D
:10131000282F28712830F9F4877F846093FF06C056
:10132000282F28712831F1F4877E84612091D3021F
:1013300020FF06C0382F38713830D9F4877F81609C
:1013400021FF06C0282F28712831D1F4877E8161C2
:1013500094FD877E0895282F24712430F9F68B7F21
:101360008860DCCF282F2471243101F78B7E8861BF
:10137000DDCF382F3171313019F78E7F8860E0CFA3
:10138000282F2171213121F78E7E8861E1CFCF9303
:10139000DF93EC0182389105A9F1D8F581339105ED
:1013A00009F496C048F58932910509F48AC08A97F4
:1013B00009F495C0C11522E5D20708F0B6C0C115E1
:1013C00031E5D30708F026C1C83ED10508F09CC01E
:1013D000C03ED10560F5C83AD10508F087C0C53ACE
:1013E000D10508F0EFC0C130D10509F12097F9F01F
:1013F000C430D105E0F440C08533910509F45AC0EA
:10140000C997C1F68091D202837089F0C0EED0E016
:101410000EC0833E910599F170F4803E910501F173
:10142000823E910539F68091D20282FD21C0CE0123
:10143000DF91CF910895863E910561F1873E910538
:1014400071F1843E910509F0B5CF8091D30281FFFF
:10145000EECF8091D202C7EED0E084FD0DC0E7CF81
:101460008091D20280FD07C19091D30290FFDFCF1F
:10147000C3EED0E084FFDBCFD0E0C0E0D8CF8091D6
:10148000D20282FDFBC09091D30290FDBFCF84FFBA
:10149000CECFF2CF8091D20283FDDDCFC8CF809135
:1014A000D20283FDEEC09091D30291FFF0CFC4EE43
:1014B000D0E0BDCF8091D20285FFB9CFC9E2D0E0A4
:1014C000B6CF8091D20285FFB2CFC5E3D0E0AFCFD7
:1014D0008091D20286FFABCFCAE2D0E0A8CF809144
:1014E000D20286FFA4CFC1E3D0E0A1CFCF3BD1058C
:1014F00018F6C85AD0E0CC0FDD1FC956DE4F099050
:10150000D881C02DD46493CFC11540E5D40708F02D
:1015100064C0C11580E4D80708F05CC0CE019A957C
:1015200081159F4108F483CFA7CFC11536E5D307B6
:1015300018F5C11545E5D40708F084C0C11584E548
:10154000D80708F07AC09C2F969596959E01237037
:101550003327C115D34508F462C0C1E0D0E002C012
:10156000CC0FDD1F2A95E2F730E2939FC0011124D2
:10157000C82BD92BDA685BCFC1158AE5D80778F478
:10158000C11599E5D90708F068C0C11528E5D2074B
:1015900008F472CFDC2FCC27C06FD06A48CFCE01C1
:1015A00090568115904208F067CF8D2F8F710E9461
:1015B000840990E0982F882788279F719C012C2B05
:1015C000E90149C0C55AD0E0CC56DE4FC881D0E011
:1015D000D0642DCFDF70D06A2ACFCE01E4E096959B
:1015E0008795EA95E1F783702C2F26952695237031
:1015F00040E2249F90011124382B8C2F8370C1E08E
:10160000D0E002C0CC0FDD1F8A95E2F7C22BD32BAE
:10161000DC680DCFDC2FCC27C16FD06A08CFC1E0CA
:10162000D0E002C0CC0FDD1F2A95E2F720E2929FA6
:10163000C0011124C82BD92BEBCFDC2FCC27C46FD2
:10164000D06AF5CE8C2F0E948409C82FD0E0DC2F01
:10165000CC27CC27DF71D062EACE8C2F8F700E940E
:10166000840934E0D695C7953A95E1F7CF709C2F61
:10167000EC01D069DCCEC9E3D0E0D9CEC2EED0E037
:10168000D6CEC6EED0E0D3CE809162028111109208
:1016900062020895809590912504982390932504E3
:1016A00008958091250490916102892B90916002A8
:1016B000892B8093EC0190916202992391F0892B00
:1016C0008093EC0120E08EEE91E0FC013191CF019E
:1016D00031112F5FF1E0843F9F07B9F721110E947C
:1016E000440BE0911804F0911904309731F0028016
:1016F000F381E02D8CEE91E00994089580915E02D3
:1017000090912D02981301C008958F5F8770FACFD2
:10171000990F990F990F890F982F97708695869535
:10172000869523E0829FF0011124E75FFD4F50E092
:1017300040E080E0219130E0092E02C036952795E7
:101740000A94E2F721703327042E01C0220F0A9475
:10175000EAF7822B4F5F5F4F4330510559F70895E9
:10176000990F990F990F890F982F977041E001C039
:10177000440F9A95EAF786958695869593E0899F1A
:10178000F0011124E75FFD4F30E020E070E051915F
:10179000DF011197CB01022E02C0969587950A941E
:1017A000E2F7817081958527842385278C932F5FAD
:1017B0003F4F2330310559F7089590E080E00E94B3
:1017C000850890E080E00E946F08109261021092FC
:1017D00060020C94510B809363020C94DD0B882300
:1017E00021F00E944A0B0C94510B0895882339F084
:1017F00090912504982B909325040C94510B0895F7
:10180000882381F19CEF980F913A78F4EEEEF1E0A5
:1018100024EF31E09191891303C0DF0111971C92ED
:101820002E173F07B9F70C94510B90E2980F9830A0
:1018300050F4877091E001C0990F8A95EAF7892FDB
:101840000E944A0BF0CF9BE5980F933020F490E074
:1018500080E00C948508885A873120F490E080E07D
:101860000C946F080895CF93C82F882309F44EC0B5
:101870008CEF8C0F813AF8F4EEEEF1E084EF91E01A
:10188000DF012D91C21759F08A179B07D1F76C2FF2
:101890008CEE91E00E945508CF910C94510B219150
:1018A000C21303C0DF0111971C928E179F07B9F76F
:1018B0000E94510BECCF80E28C0F883068F4C77027
:1018C00021E030E001C0220FCA95EAF7809125049B
:1018D000822B80932504E0CFEBE5EC0FE33040F45E
:1018E000F0E0EC56FE4F808190E0CF910C9485089B
:1018F000C85AC73158F4EC2FF0E0EE0FFF1FE9563D
:10190000FE4F80819181CF910C946F08CF91089503
:10191000982F92959F7011F0892F94E0282F26958B
:10192000269511F09E5F822F869509F09F5F892F83
:101930000895CF93C82F80914A048C1751F00E94CC
:10194000490860934B0470934C0480934D0490932A
:101950004E04C0934A04CF910895CF92DF92EF9244
:10196000FF920F931F93CF93DF93FC01EB019091B4
:101970004F04911101C097E06081718191509B01EA
:10198000092E02C0359527950A94E2F7D901092E50
:1019900002C0AA0FBB1F0A94E2F76A1B7B0B71837C
:1019A0006083628173818B01092E02C015950795B2
:1019B0000A94E2F7D80102C0AA0FBB1F9A95E2F77A
:1019C0006A1B7B0B7383628381E80138BFEF1B07BF
:1019D0002CF0802F003811050CF08FE78D83213813
:1019E0009FEF390774F1203831056CF5922F9195EE
:1019F0009C83442319F081958D832C830E94490890
:101A00002D81211103C02C812223F9F06093500411
:101A10007093510480935204909353048091540422
:101A20009BE0980F973120F4080F009354041D8217
:101A3000DF91CF911F910F91FF90EF90DF90CF90AA
:101A4000089521E8D3CF2FE7D1CFC0905004D09094
:101A50005104E0905204F09053046C197D098E09F2
:101A60009F096436710581059105C0F210925404F6
:101A7000D5CFFC01DB012281338191E821388FEF42
:101A800038072CF0922F203831050CF09FE7129682
:101A90009C9312972081318121388FEF3807A4F071
:101AA000203831059CF413962C931397442339F076
:101AB000919512969C931297219513962C931182CF
:101AC000108213821282089521E8EDCF2FE7EBCF29
:101AD000382F20E287FF02C031952DE24AE0832FA4
:101AE000642F0E941C33905D9093020281110BC001
:101AF0002093010220E22093000220E22093FF01C4
:101B00008FEF91E00895642F0E941C33905D9093B5
:101B10000102832F64E60E941C33882361F3805DF9
:101B200080930002EBCF9C01860F971F37FD07C003
:101B300077FD04C097FF02C08FEF9FE7089577FFFE
:101B4000FDCF97FDFBCF80E090E80895E82FE29568
:101B5000EF70F0E031A1282F2F7081E090E001C0FC
:101B6000880F2A95EAF7382B31A392A18095892313
:101B700082A30895E82FE295EF70F0E031A1282FBD
:101B80002F7081E090E001C0880F2A95EAF7982F26
:101B90009095932391A392A1892B82A30895CF922C
:101BA000DF92EF92FF920F931F93CF93DF937C010D
:101BB0006B0180916A0601E010E08A3010F40AE0BF
:101BC00010E0C1E0D0E0F89460E776E0C701F601EC
:101BD00009957894811104C021960C171D074CF4C7
:101BE000DF91CF911F910F91FF90EF90DF90CF90F9
:101BF0000895CC9F9001CD9F300D300D112490E0C1
:101C000080E045E34A95F1F70000019682179307BB
:101C1000C1F7D9CF809321047093230460932204E9
:101C2000809132048430F9F48093E9008FEF909131
:101C3000E800815095FD06C095ED9A95F1F70000FA
:101C40008111F5CF8091E80085FF0DC050E040E0A4
:101C500063E070E081E294E00E94FA068091E8007F
:101C60008E778093E8000895BC0184E00C940A0EFE
:101C7000BC0183E00C940A0E9C0184E08093E9008F
:101C80009FEF8091E800915085FD06C085ED8A9513
:101C9000F1F700009111F5CF8091E80085FF0CC0AD
:101CA00050E040E066E070E0C9010E94FA068091D1
:101CB000E8008E778093E8000895CF93DF93EC01DE
:101CC00081E08093E9008FEF9091E800815095FDCD
:101CD00006C095ED9A95F1F700008111F5CF80913E
:101CE000E80085FF14C050E040E068E070E0CE01FD
:101CF0000E94FA068091E8008E778093E80088E0E1
:101D0000FE01A8E2B4E001900D928A95E1F7DF911F
:101D1000CF91089580916402811118C082E390915F
:101D2000E30097FD10C0EFE3FCE93197F1F700C045
:101D300000008150A1F782E0809364020E94AA060D
:101D40001092320403C081E08093640281E090919C
:101D50006402913011F080E0089508950E948A0E87
:101D6000882351F0E0911804F0911904309721F084
:101D70000190F081E02D099480E0089557985F9AD2
:101D8000879A8F9825E02A95F1F7000089B1879806
:101D90008F9A90EA9A95F1F790E0880F892F881F23
:101DA000990B21E0822781700895CF93DF93809172
:101DB0003D04C5E28111C2E280913E04D0E0882357
:101DC00029F080913F04D5E28111D2E20E94BE0E3B
:101DD00081110FC08D2F80938E01C0938F01CD0F85
:101DE00010929001C0939101C0939201DF91CF9125
:101DF000089580E0F0CF80913D04F90180830C9438
:101E0000D50E1F93CF93DF93182FEB010E94330C55
:101E10008FE99FE00197F1F700C000002197C1F71B
:101E2000812FDF91CF911F910C94000CEEEEF1E029
:101E300086E0DF011D928A95E9F70C94DD0B1F9374
:101E4000CF93DF93CDB7DEB7AA970FB6F894DEBF76
:101E50000FBECDBF84E394E02091F100DC012D930F
:101E6000CD01B4E08C339B07B9F780913504833002
:101E700009F472C0B8F4813009F449C0823009F421
:101E8000B5C08091E80083FF8DC2809134049091A9
:101E900035049A3008F086C2E92FF0E0E056FC4C99
:101EA0000C942A338A3009F490C08B3009F471C045
:101EB000893039F780913404813219F780913804E0
:101EC00090913904009711F00297D9F68091E800BB
:101ED000877F8093E8008091E80082FF38C090916E
:101EE000F3008091F200029731F48091F10081308B
:101EF00011F0863021F48091F100809327048091C5
:101F0000E8008B778093E8000E942407BACF809185
:101F10003404813A09F0B5CF8091E800877F80933F
:101F2000E8008091380490913904892B61F468E0CD
:101F300088E294E070E00E94D6078091E8008B77F9
:101F40008093E8009ECF60E090E080E0F3CF809146
:101F500032048111C0CF95CF80913404813A09F0C9
:101F600090CF8091380490913904892B09F089CF62
:101F70008091E800877F8093E8008091E80080FFEF
:101F8000FCCF80918D018093F1008091E8008E77E5
:101F9000B9CF80913404813209F073CF8091380435
:101FA00090913904892B09F06CCF8091E800877FEC
:101FB0008093E8000E9424078091360480938D016D
:101FC000109225040E94160F5CCF80913404813258
:101FD00009F057CF8091E800877F8093E8000E9446
:101FE000240780913704809326044BCF80913404DA
:101FF000813A09F046CF8091E800877F8093E8001E
:102000008091E80080FFFCCF80912604BCCF80380F
:1020100099F0823809F0C6C1809138048F708730FA
:1020200008F0C0C18093E9008091EB0085FB882710
:1020300080F91092E90006C080913004909131043B
:10204000911182609091E800977F9093E8008093CF
:10205000F1001092F1008091E8008E779FC18823F3
:1020600009F48DC1823009F09DC18091360481113F
:1020700090C1809138048F702FEF280F263008F020
:1020800091C18093E9002091EB0020FF82C1933041
:1020900031F48091EB0080628093EB007AC19091E3
:1020A000EB0090619093EB0021E030E001C0220F43
:1020B0008A95EAF72093EA001092EA008091EB00FB
:1020C0008860EACF81116EC1109136041F7780912C
:1020D000E3008078812B8093E3008091E800877F84
:1020E0008093E8000E9424078091E80080FFFCCFE5
:1020F0008091E30080688093E30082E0111183E027
:10210000809332044FC18058823008F04BC1209137
:102110003604309137042C3DE3E03E07A1F583E01F
:102120008A838AE289834FB7F894DE01139620E010
:102130003EE051E2E32FF0E050935700E49120FF9E
:1021400003C0E295EF703F5FEF708E2F90E0EA30B2
:10215000C0F0C7968D939D932F5F243159F74FBFE1
:102160008091E800877F8093E8006AE270E0CE010A
:1021700001960E94D6078091E8008B778093E80053
:1021800011C1C096E7CF8091380490913904432F54
:1021900055274330510509F44AC078F541305105BF
:1021A00009F47AC08BE590E0EBEBF6E042305105A4
:1021B00009F0F8C02091E800277F2093E8002091E3
:1021C0003A0430913B048217930708F49C0140E0E5
:1021D0002115310509F065C0411163C08091E80007
:1021E00082FDC9CF80913204882329F2853019F20B
:1021F0008091E80083FFF2CFBECF4132510509F450
:102200003CC04232510509F0CDC08330910508F041
:10221000C9C0FC01EE0FFF1FE252FE4F0190F0819A
:10222000E02D85529E4FDC018C9190E01AC033273F
:1022300021303105D1F02115310561F02230310511
:1022400009F0B0C0E8E2F7E0E4918E2F90E0E8E218
:10225000F7E007C0E0E5F7E0E4918E2F90E0E0E5DD
:10226000F7E0009709F49EC0A5CFEEE3F7E0E49114
:102270008E2F90E0EEE3F7E0F4CF8330910508F085
:1022800091C0880F991FFC01EC51FE4F0190F08125
:10229000E02D89E090E08ECF82E190E0E6E1F7E08A
:1022A00089CF80913204882309F465CF853009F401
:1022B00062CF8091E80083FD5ECF8091E80082FDCF
:1022C0008DCF8091E80080FF83CF9091F3008091C3
:1022D000F2002115310519F08830910550F041E0E8
:1022E000089709F040E08091E8008E778093E8003D
:1022F0006FCF44914093F1003196215031090196FE
:10230000E8CF803809F04EC08091E800877F809345
:10231000E800809133048093F1009DCE811142C08A
:10232000109136041230F0F58091E800877F809399
:10233000E800109333040E942407112311F084E075
:1023400005C08091E30087FDFACF81E080933204DD
:1023500042E061EC81E00E94430742E261EC84E0EC
:102360000E94430742E261EC82E00E94430742E29E
:1023700060EC83E00E9443078091320413C0809197
:102380003604813079F481E0933009F080E0809365
:1023900031041092E9008091E800877F8093E80083
:1023A0000E9424078091E80083FF0AC08091E80022
:1023B000877F8093E8008091EB0080628093EB0040
:1023C000AA960FB6F894DEBF0FBECDBFDF91CF91B6
:1023D0001F9108954F925F926F927F928F929F927A
:1023E000AF92BF92CF92DF92EF92FF920F931F9323
:1023F000CF93DF9300D000D00F92CDB7DEB75090CF
:102400008F0190910B0490FF3DC080902B03909022
:102410002C038114910409F048C080918E0143E09F
:10242000849FC0011124835D9C4F539A2BB1277F59
:102430003BB138605FB7F894BC01549E600D711DCC
:1024400011248617970709F08CC05FBF8FE594E0D1
:102450000197F1F700C000000F900F900F900F90C0
:102460000F90DF91CF911F910F91FF90EF90DF9030
:10247000CF90BF90AF909F908F907F906F905F9024
:102480004F900895809190012091910133E0839FB6
:10249000F0011124E35DFC4F821708F0B6CF1182E2
:1024A000108212828F5F3396F7CF90FFB6CFD12C78
:1024B000C12C66246394712C53E0452E80912A032D
:1024C00093010C2C01C0220F0A94EAF7822309F42D
:1024D0003FC0F601EE0FFF1FE80DF91DE590F490E7
:1024E000E114F10409F499CF45E050E0B701CE01C1
:1024F00001960E94373309810F3F51F18A81800F85
:102500009927991F8B34910514F08AE490E05C01BF
:10251000AA0CBB1C8A0D9B1DFC01E35DFC4F5F01F7
:10252000049D80011124035D1C4F0A151B0520F03A
:10253000F5E0EF0EF11CD8CF4D81493708F048E7A0
:1025400098016C818B810E94B6080D5F1F4FEDCF03
:102550002FEFC21AD20A38E0C316D10409F0AECF69
:102560005CCFFC014191CF01E8E03BB9000000C025
:1025700047FF2BB9440F000000C000C000C02BB9BA
:1025800000C0EA9591F75DCFEBE0F4E080818E7FAB
:102590008083E7E2F3E08281816082832FEF80E72E
:1025A00092E0215080409040E1F700C000000C9480
:1025B000EA11CF93DF93682F81E06A3019F06D3014
:1025C00029F480E0DF91CF910C9468138091680624
:1025D0009091690626E0FC01A2E6B6E001900D921A
:1025E0002A95E1F7603E08F45AC026E0FC011192FA
:1025F0002A95E9F7C0916806D091690646E050E057
:10260000BE0182E696E00E9440339E01225634408D
:10261000892B41F1C90145E0969587954A95E1F7E7
:1026200041E050E0BA0102C0660F771F8A95E2F7D9
:10263000CB016091600470916104862B972BB901E6
:102640006B5F7F4FE5E076956795EA95E1F702C00D
:10265000440F551F6A95E2F7842B952B90936104E4
:10266000809360042A5F3F4F40915F04642F70E0C5
:10267000C9010E94FC32481B463010F4240F311D62
:10268000211572E0370710F030E020E02E593B4F63
:102690003093690620936806DF91CF910895F6E0A4
:1026A0006F9FB00111246C5A784F46E050E00E94B1
:1026B0003733A0CFCF93DF93EC01FE0184918111DA
:1026C00003C0DF91CF9108950E94D9122196F5CFD2
:1026D000CF93382FE0916806F0916906E256F440F6
:1026E00020915F04622F70E0CF010E94FC32281B12
:1026F000822F332361F066E00E941033C82FC1504F
:1027000010F4CF91089580E20E94D912F8CF9F0172
:10271000280F311D2115324018F080E0F0E0E0E094
:102720008E0F9F2F911D8E599B4F9093690680931A
:102730006806E7CF0F931F93CF93DF93EC01FC0163
:1027400001900020E9F78F0101501109C017D1074E
:1027500028F0DF91CF911F910F91089589910E94E8
:10276000D912F4CFCF92DF92EF92FF920F931F9383
:10277000CF93DF936C017B0164E670E088E70E94F1
:10278000D92FEC0197FD12C010E000E0F601E00F38
:10279000F11F849164E670E00E945330EC01892BB4
:1027A00029F40F5F1F4F0E151F0581F70E94D630C9
:1027B000CE01DF91CF911F910F91FF90EF90DF90AD
:1027C000CF9008958091140490911504911103C045
:1027D00091E089270895882369F062E070E089E339
:1027E00094E00E94B213892B19F08091140408958B
:1027F0001092140480911404EBCFCF93C091140471
:10280000809115048823D1F00E944908605A7541CF
:102810008F4F9F4F609310047093110480931204A4
:1028200090931304C11108C062E070E087E394E064
:102830000E94B213892B29F0C09114048C2FCF91E0
:10284000089581E080931404F7CFCF93DF93C7EA14
:10285000D2E060E0CE010E946A332196C11584E087
:10286000D807B9F7DF91CF9108956F927F928F9239
:102870009F92AF92BF92CF92DF92EF92FF920F930F
:102880001F93CF93DF938BE3C82E84E0D82E07ED00
:1028900010E0E801C05AD10936011CC0F50185904D
:1028A0009490692DC7010E946A33682DC701019673
:1028B0000E946A3382E0A80EB11C82E0E80EF11C8F
:1028C000CE15DF0559F780E1680E711C60960C1774
:1028D0001D0731F07E0180E1E81AF1085301DECFD7
:1028E00000561F4F80EAC80ED11C073583E0180739
:1028F00081F6DF91CF911F910F91FF90EF90DF90C4
:10290000CF90BF90AF909F908F907F906F900895E1
:1029100086E290E00C946A33CF93C82F6FEF811159
:1029200062E283E290E00E946A336FEFC11161E1DD
:1029300084E290E00E946A336FEFC11164E285E2A5
:1029400090E0CF910C946A3380E00E948C1460E098
:1029500070E0CB010E9488140E9435140E94251457
:1029600081E00C948C140F931F93CF93DF9320E19D
:10297000629FE001112450E0440F551FC40FD51F82
:1029800030EA839FC00DD11D1124CE0187960E948D
:102990005633082F10E0102F0027CE0188960E9492
:1029A00056339801282BC901DF91CF911F910F91C8
:1029B0000895462F843038F47A3028F4683018F4BB
:1029C000672F0C94B31490E080E00895CF92DF92CB
:1029D000FF920F931F93CF93DF936C0100913C0400
:1029E00080916302082BC7E0D0E010E0FC2EC80104
:1029F0000C2E02C0959587950A94E2F780FD0CC0D5
:102A00002197A0F7F12C8F2DDF91CF911F910F917E
:102A1000FF90DF90CF900895B6018C2F0E94D914BB
:102A20000E94C709019761F3EECFCF93DF93EC01CA
:102A30000E94E614BE010E94D914DF91CF910C943C
:102A4000C709FC01808191810E941515292F2F70E3
:102A500092959F7092509E3078F4E92FF0E0E65501
:102A6000FC4C0C942A33803F19F020F4883E20F46B
:102A700081E00895843FE1F380E00895883EC0F34B
:102A8000813FD1F7F5CF822F86958695869508955B
:102A900083E290E00E945633823289F484E290E02F
:102AA0000E945633813159F485E290E00E945633FA
:102AB00091E0843209F090E0892F8170089580E0E0
:102AC000FCCFCF92DF92EF92FF926B017C010E94CC
:102AD000A008B701A60188E090E0FF90EF90DF909A
:102AE000CF900C947C33EF92FF920F931F93CF9370
:102AF000DF9300D00F92CDB7DEB7F82E062F142F3C
:102B0000E22E80910B0480FF4DC0E82FE695F0E0A7
:102B1000E752FE4F9081909327038E7F8230F9F425
:102B2000493708F048E79E012F5F3F4F602F8F2DF8
:102B30000E94B60880910B0480FF11C02B8139815F
:102B40004A81809190019091910153E0859FF0011D
:102B50001124E35DFC4F891778F10E94EA118091FE
:102B60000C048F1108C080910D04801304C0809163
:102B70000E04811729F08091290382608093290334
:102B8000F0920C0400930D0410930E04EE2051F00B
:102B900060910B0470910C0480910D0490910E04CF
:102BA0000E9461150F900F900F90DF91CF911F91B0
:102BB0000F91FF90EF9008954183308322838F5FC0
:102BC0003396C9CFEBE0F4E043812CE0421B08F4DC
:102BD00040E021E0628181810C947315EBE0F4E028
:102BE00043812CE0420F08F44FEF21E062818181A4
:102BF0000C947315EBE0F4E0628121E1621B08F4B0
:102C000060E021E0438181810C947315EBE0F4E0F6
:102C1000628121E1620F08F46FEF21E0438181813D
:102C20000C947315EBE0F4E0818121E04381628133
:102C300081510C947315EBE0F4E0818121E0438134
:102C400062818F5E0C94731580910F04882319F0B4
:102C5000815080930F0460910B0470910C0480915B
:102C60000D0490910E040C94611580910F04833033
:102C700018F48F5F80930F0460910B0470910C0423
:102C800080910D0490910E040C94611580910B04B9
:102C900080FF1EC08170826080930B0480912903A5
:102CA000816080932903662351F060910B04709139
:102CB0000C0480910D0490910E040E94611520E097
:102CC00040910E0460910D0480910C040C947315D6
:102CD000089521E030E0A90102C0440F551F8A95F4
:102CE000E2F7CA0120912A03662391F0822B809398
:102CF0002A0380912903806180932903809128030E
:102D0000811109C080910B0460E086950C944616F1
:102D100080958223ECCF0895CF93C82F61E0811175
:102D2000682F617080E00E946916C1FB662760F918
:102D3000C11101C060E081E00E946916C2FB6627F4
:102D400060F9C11101C060E082E00E946916C3FB16
:102D5000662760F9C11101C060E083E00E94691636
:102D60008C2F0E94880C91E0833009F090E0892F2D
:102D70000E94990C8C2FCF9108950E948C168093FD
:102D80003C040C94DD0B80913C04982F9670963097
:102D900019F488600C94BD16877FFCCFCF93DF9326
:102DA000CDB7DEB768970FB6F894DEBF0FBECDBFC4
:102DB00040912103509122036091230370912403D9
:102DC00080912503909126030E94921A209321035B
:102DD00030932203409323035093240360932503ED
:102DE0007093260386E0E1E2F3E0DE01179601909E
:102DF0000D928A95E1F786E0FE013796DE01119685
:102E000001900D928A95E1F720918C0130E089853F
:102E1000082E000C990B97FF03C09195819591099D
:102E20002817390764F08A85082E000C990B97FF44
:102E300003C09195819591092817390764F4809111
:102E40001A0390918B01981708F06FC084E00E94DC
:102E5000BD1610921A0386E0FE013196DE011D9622
:102E600001900D928A95E1F786E0FE013D96DE0124
:102E7000539601900D928A95E1F786E0FE017396D4
:102E8000DE01119601900D928A95E1F786E0FE0130
:102E90003196A1E2B3E001900D928A95E1F786E0C8
:102EA000E1E2F3E0DE01179601900D928A95E1F7D9
:102EB00086E0EBE1F3E0DE01119601900D928A9538
:102EC000E1F746E050E0BE016F5F7F4FCE0107960D
:102ED0000E944033892B79F0E0911804F091190495
:102EE000309749F082E0809321030480F581E02D42
:102EF00081E293E00995109223031092240310922B
:102F000025031092260386E0E1E2F3E0ABE1B3E0B3
:102F100001900D928A95E1F768960FB6F894DEBF9E
:102F20000FBECDBFDF91CF9108958F5F80931A03BD
:102F300092CF21E030E001C0220F8A95EAF7209578
:102F400080913C0482230C94BD1690915F02809581
:102F5000892380935F02282F277091F4282F082E51
:102F6000000C330B9217130659F09091D30292FD87
:102F700007C08595859585950E94991710925F02E7
:102F80000895CF93C091D302C2FB992790F9981767
:102F900099F080FBC2F9C093D3026091D20284E021
:102FA00090E00E946A336C2F82E290E00E946A33C4
:102FB00082E0CF910C94A517CF91089521E030E0E5
:102FC00001C0220F8A95EAF780913C04822B0C9471
:102FD000BD1680910B048695815009F481E061E073
:102FE0000C94461661E081E00C944616EBE0F4E0A8
:102FF00083E0808311828FEF828388E7838314824A
:10300000A7E2B3E012968C911297836012968C938C
:1030100060817181828193810C94611569EE7EEFEC
:1030200090E080E00E94883360E082E090E00E94BF
:103030006A3360E083E090E00E946A33109263029A
:1030400060E084E090E00E946A3360E082E290E019
:103050000E946A3360E085E090E00E946A3360E09D
:1030600086E090E00E946A336FEF87E090E00E9474
:103070006A3340E050E0BA0188E090E00E947C337F
:1030800060E08DE090E00E946A3340E050E0BA01D9
:1030900088E190E00E947C3360E087E190E00E944C
:1030A0006A3340E050E0BA018CE190E00E947C334A
:1030B00070E060E080E290E00E94883340E050E001
:1030C000BA0188E190E00E947C3380E00E948C1479
:1030D0000E94A41440E050E0BA018FE090E00E940A
:1030E0007C3340E050E0BA0183E190E00C947C3303
:1030F000EF92FF920F931F93CF93DF937901C82F25
:10310000880FDD0B41155105A9F08AE08C9FF00175
:103110008D9FF00D1124E65FFE4F838194818B59C2
:103120009D4F228130E04217530708F49A01A9010C
:103130000E944D33CE010E944832892B11F50115B2
:103140001105E9F08AE08C9FF0018D9FF00D1124AC
:10315000E65FFE4F458150E00417150708F4A8010B
:103160008AE08C9FF0018D9FF00D1124E65FFE4FE9
:10317000668177816B597D4FC7010E944D3381E095
:1031800001C080E0DF91CF911F910F91FF90EF90F0
:103190000895AF92BF92CF92DF92EF92FF920F937A
:1031A0001F93CF93DF9300D000D0CDB7DEB78C83D1
:1031B000E62E5A01F22E680180916A068A3080F06C
:1031C00080E00F900F900F900F90DF91CF911F91A3
:1031D0000F91FF90EF90DF90CF90BF90AF90089548
:1031E0008C8188306CF389836A832B8360933E01E2
:1031F0002093550110E000E030E020E043E050E093
:10320000BE016F5F7F4F84E00E9478188823C1F26F
:103210004E2D50E030E020E0B50185E00E947818A6
:10322000882371F230E020E041E050E0BE016C5FA5
:103230007F4F86E00E947818882311F20F2D10E04E
:10324000960150E040E070E060E087E00E9478186E
:10325000B8CF0F931F93CF93DF93CDB7DEB72997E6
:103260000FB6F894DEBF0FBECDBF85E0EBE0F4E013
:10327000DE01119601900D928A95E1F78091270366
:1032800090912803A0912903B0912A038E839F83F4
:10329000A887B98728854091C8025091C9026091DA
:1032A000CA027091CB023FB7F89480911D049091AF
:1032B0001E04A0911F04B09120043FBF841B950BF6
:1032C000A60BB70B84369105A105B10510F4222396
:1032D000C1F010E000E030E020E049E050E0BE0145
:1032E0006F5F7F4F83E00E947818882369F00E9407
:1032F00049086093C8027093C9028093CA029093F0
:10330000CB021092290381E029960FB6F894DEBF14
:103310000FBECDBFDF91CF911F910F9108950F93F5
:103320001F93CF93DF9300D000D0CDB7DEB740918D
:10333000C4025091C5026091C6027091C7022FB7B6
:10334000F89480911D0490911E04A0911F04B091E7
:1033500020042FBF841B950BA60BB70B11E08436FE
:103360009105A105B10538F10E948A0E882369F103
:103370000E9449086E5F7F4F8F4F9F4F69837A830A
:103380008B839C8310E000E030E020E044E050E0DC
:10339000BE016F5F7F4F82E00E947818182F88234C
:1033A00051F00E9449086093C4027093C502809353
:1033B000C6029093C702812F0F900F900F900F902D
:1033C000DF91CF911F910F9108950E9449080091BC
:1033D000CC021091CD022091CE023091CF02600F2D
:1033E000711F821F931FC6CFEF92FF920F931F93FF
:1033F000CF93DF9300D000D000D0CDB7DEB77B01F4
:1034000001E010E09E012A5F3F4F50E040E070E095
:1034100060E080E00E947818182F882309F44FC0DC
:103420004091C0025091C1026091C2027091C302EA
:103430002FB7F89480911D0490911E04A0911F0451
:10344000B09120042FBF841B950BA60BB70B8436BD
:103450009105A105B10538F486E692E00E94930635
:103460009E81891761F105E010E09E012F5F3F4FBB
:1034700050E040E070E060E081E00E947818082FA2
:1034800086E692E00E94930611E09E81981310E078
:10349000102301F10E9449086093C0027093C10299
:1034A0008093C2029093C30285E0FE013196ABEB9C
:1034B000B2E001900D928A95E1F711E00BC085E032
:1034C000E6E6F2E0DE01119601900D928A95E1F7B1
:1034D0001111EACF85E0EBEBF2E0D70101900D92FC
:1034E0008A95E1F7812F26960FB6F894DEBF0FBEBE
:1034F000CDBFDF91CF911F910F91FF90EF90089575
:1035000090E080E00E946433893E9E4F11F40C9459
:10351000481580E0089528E030E043E060E086E36D
:103520000C94012FCF92DF92EF92FF920F931F9393
:10353000CF93DF93CDB7DEB72C970FB6F894DEBFED
:103540000FBECDBF4F83588769877A878B879C874B
:1035500080913D04882399F00E948B1A80E50E9497
:10356000792F8AEB8A95F1F700C00E94912F887815
:1035700099278038910509F492C00E94A92F0E94D2
:103580008A0E882309F46BC00E9449080091040246
:103590001091050220910602309107026B017C0117
:1035A000C01AD10AE20AF30A970186010830110510
:1035B0002105310508F453C060930402709305029D
:1035C000809306029093070200914B0410914C04E3
:1035D00020914D0430914E04601B710B820B930BB4
:1035E000623371058105910580F4109241041092B7
:1035F0004004109243041092420410924504109229
:103600004404109247041092460410914A040E9408
:10361000BE0E482FBE01695F7F4F80E494E0112306
:1036200009F46AC00E94AD0C00914A0410913D0457
:103630000E94BE0E41E04827BE01695F7F4F84E4CF
:1036400094E0011709F45BC00E94AD0C86E0FE0116
:103650003796A9E5B4E001900D928A95E1F786E0EE
:10366000FE013796DE01119601900D928A95E1F7E1
:1036700029813A814B815C816D817E8180E090E07F
:103680002C960FB6F894DEBF0FBECDBFDF91CF9161
:103690001F910F91FF90EF90DF90CF9008950E94BF
:1036A000912F0E94912F7C010E94912F20E0E22A0D
:1036B000F82A0E94912F8C010E94912F20E0022B6A
:1036C000182B0E94A92FF894B70180914004909183
:1036D00041040E94930D9093410480934004B801EB
:1036E00080914204909143040E94930D909343046F
:1036F00080934204789443CF0E94390D95CF0E9465
:10370000390DA4CFCF93DF93D82FC62F0E948B1AE9
:103710008D2F80680E94792F8C2F0E94792F0E9414
:10372000A92F8FEC92E00197F1F700C00000DF9124
:10373000CF910895682F893708F068E760934804AF
:1037400091E09093490490913D04992359F0615080
:10375000811101C066E08FE00E94821B60E080E57D
:103760000C94821B0895FB0180810C949A1B90910C
:103770004804911101C097E0282F880F330BA9014D
:10378000490F511DCA011816190614F081E090E086
:103790000C949A1B3F924F925F926F927F928F92FE
:1037A0009F92AF92BF92CF92DF92EF92FF920F93D0
:1037B0001F93CF93DF93CDB7DEB762970FB6F89420
:1037C000DEBF0FBECDBF8C01FC0183819481892BAC
:1037D00031F08081918189238F3F09F0ACC56296D9
:1037E0000FB6F894DEBF0FBECDBFDF91CF911F9112
:1037F0000F91FF90EF90DF90CF90BF90AF909F9090
:103800008F907F906F905F904F903F9008950E94AF
:10381000E614F82E682F89819A810E94B00B698185
:103820007A818F2D0E94D9147C01F801828188232E
:1038300009F473C5C70182519F45409708F022C51E
:103840008FEF93E00E945633FEEEEF0E57EA852E7F
:1038500052E0952E8823A9F180915F02877009F4C8
:10386000BECFF8018281882309F4B9CF8091D302B9
:1038700082FDB5CF82E062960FB6F894DEBF0FBE30
:10388000CDBFDF91CF911F910F91FF90EF90DF900F
:10389000CF90BF90AF909F908F907F906F905F90F0
:1038A0004F903F900C94A517811424E09206A1F24A
:1038B000C4010E945633811101C0EA943FEF831A7C
:1038C000930AE110F1CF1C821B82442443944AE006
:1038D000342E74018FEFE81AF80AC4010E9456339F
:1038E00089831A82882309F4B7CF9FEF980F93300A
:1038F00030F58A83498292E0890E911CC7010E94AB
:1039000056338B83882309F4A7CFFE0131967F01BC
:10391000F70120812223E9F2213009F04FC0918183
:103920008281913071F4F2E0EF0EF11C65E070E0FD
:10393000893311F460E570E00E94010F09C047016E
:10394000E4CF923049F422E0E20EF11C0E94330CE5
:103950008FEFE81AF80ADCCF933031F432E0E30E4F
:10396000F11C0E94000CF4CF943021F08FEFE81A84
:10397000F80AEECF92E0E90EF11C30E020E0B7014A
:103980006F5F7F4FF70141818053990B8A3091051A
:1039900050F021503109E0F28FE99FE00197F1F7F3
:1039A00000C00000F6CF329EF001339EF00D1124CE
:1039B0009C012E0F3F1F842F7B01E1CFE22FF0E00F
:1039C000EF51FE4F5490822F86958695869590E014
:1039D000FC01EF52FE4F64902770712C022E02C042
:1039E000759467940A94E2F7E1E06E227724FC0173
:1039F000EF53FE4FA490B12C022E02C0B594A794B1
:103A00000A94E2F7F1E0AF22BB24FC01EF54FE4F31
:103A1000C490D12C02C0D594C7942A95E2F721E036
:103A2000C222DD246114710419F081EE0E94330C6E
:103A3000A114B10419F086EE0E94330C39E365E05D
:103A400070E0531202C060E570E0852D0E94010F06
:103A5000AB2819F086EE0E94000C672819F081EE61
:103A60000E94000CCD2809F473CF65E070E08CE271
:103A700063CF81E00E94DE170E94C316EDCE81E085
:103A80000E949917F9CF82E0F5CF91EBE9169DE5F9
:103A9000F906E1F0E2EBEE16EDE5FE0609F01CC4D6
:103AA00090918B01915009F417C415C090918C012D
:103AB0009F5F953618F490938C010EC494E6FBCF6B
:103AC00090918C01915009F407C4F5CF90918B012E
:103AD0009F5F953618F490938B01FEC394E6FBCF5D
:103AE000F70102C4E45FF10921E030E001C0220FD8
:103AF000EA95EAF796E0E1E2F3E0DE01179601903D
:103B00000D929A95E1F796E0FE013796DE011D963B
:103B100001900D929A95E1F79885882389F1292BD8
:103B20002E8786E0FE013D96DE01119601900D92F2
:103B30008A95E1F786E0FE013196A1E2B3E00190BB
:103B40000D928A95E1F7F8018281F6E1EF16FCE526
:103B5000FF0609F069C0882309F451C0809125044B
:103B60008A7A91E009F490E09093080269E2811169
:103B700065E38CEE91E00E9455080E94510B6CCEDB
:103B800020952923CDCF80E00E949A1B10924F04EC
:103B900063CE4091480450914F0450FB47F956952D
:103BA000537060E070E08FE090E00E947C3354CE70
:103BB00081E00E94B71B50CE8FEFFBCF8AE0F9CF98
:103BC00086EFF7CF90914A0481E089270E94990CF3
:103BD00043CE80914F04811101C087E08F5F18169A
:103BE0000CF081E0883008F087E080934F0434CEF9
:103BF00080914F04811101C087E08150F0CF809106
:103C0000080281110FC089E2EEEEF1E024EF31E00D
:103C10009191891303C0DF0111971C922E173F0762
:103C2000B9F7ABCF85E3F0CF8111F1C080912504C6
:103C3000827229ECE2162CE5F20609F4E0C008F0E5
:103C400077C095ECE9169CE5F90609F4D3C008F0B5
:103C500056C0F3ECEF16FCE5FF0609F4BFC008F010
:103C6000C4C032ECE3163CE5F30609F48DC0F8015C
:103C70008281E080F180882309F404C1C7010E9499
:103C8000E614D82E682FC7010E94B00BB7018D2D06
:103C90000E94D9140E94C7097C01882EF801D280A5
:103CA000B580B2943FE0B32280915F028770C1F08B
:103CB000AD2CDD20B1F08F2D807F803421F080E2AB
:103CC0008E0D883068F08091D30282FD09C082E0B9
:103CD0000E94A51780915F028770AA24A394811186
:103CE000A12C9F2C92942FE09222FBE0F91508F46E
:103CF00039C1E92DF0E0E854FC4C0C942A334AEF2A
:103D000055E166E076E197ECE9169CE5F90609F4E1
:103D100069C04BE156E162E176E1E8ECEE16ECE5D4
:103D2000FE0608F45FC046E056E16AEF75E15AC04E
:103D3000FDECEF16FCE5FF0609F466C0C8F444E2AA
:103D400056E165E376E13BECE3163CE5F30609F466
:103D500049C04EEE55E162EE75E19CECE9169CE53A
:103D6000F90608F43FC045E356E164E276E13AC063
:103D7000E6EDEE16ECE5FE0608F46ECDFDE5EF1679
:103D8000FF0609F469CD73CF80910B0480FF1EC03C
:103D90008E7F80930B0460910B0470910C048091D2
:103DA0000D0490910E040E94611580912903816099
:103DB000809329032FEF30E782E02150304080408C
:103DC000E1F700C000000E94EA1146CD81608093B7
:103DD0000B0461E086950E9446163ECD49EE57E100
:103DE00062EF77E10E949B0837CD42EF57E169EE21
:103DF00077E1F8CF42E156E16BE176E1F3CF42EEB5
:103E000055E16EEE75E1EECF61E081E0E4CF9AE539
:103E1000E9169DE5F90691F168F4E114FCE5FF0669
:103E2000F1F02EEDE2162CE5F20609F020CF0E940B
:103E30000E1812CD3BE5E3163DE5F30609F18CE5DE
:103E4000E8168DE5F80609F012CF8091D30282FBC7
:103E5000882780F991E089270E94C11708CF109226
:103E600025040E94160F9FEFE4E3FCE09150E04030
:103E7000F040E1F700C000000E94380881E0ECCF7C
:103E800080E0EACFC7010E94880BD82EFFCE2F2DED
:103E90002F70C22E8F2D807F19F0C29490EFC9220F
:103EA000DD20B9F0CC2069F080E28E0D883010F072
:103EB000811009C080912504C82AC09225040E945F
:103EC000510B8E2D4DC080916102C82AC0926102B3
:103ED000F6CF8E2D0E94000CCC2009F443C080E266
:103EE0008E0D883010F0811004C08C2D0E944A0B7A
:103EF00006C0C09480916102C822C09261020E94F3
:103F0000510B30C03F2D3F70C32E8F2D807F8032EC
:103F100019F0C29480EFC822882089F081E08816C9
:103F200009F480C0DD2009F48AC0BB2009F480C0F8
:103F3000F801858180FFC5CF8F70858379C020917E
:103F4000D30222FF4CC0DD2009F443C0CC2039F05D
:103F500080912504C82AC09225040E94510B80E05C
:103F60000E94330C292D2850330B2430310510F4D6
:103F70000E94AE0EAA2009F432CC80915F0280FD2F
:103F80002ECCF80112828595859585950E94DE17C5
:103F9000C8010E94CA1B80915F0285958595859511
:103FA00062960FB6F894DEBF0FBECDBFDF91CF9102
:103FB0001F910F91FF90EF90DF90CF90BF90AF9047
:103FC0009F908F907F906F905F904F903F900C9458
:103FD000991780E00E94000CCC2021F286CFDD20D2
:103FE000A1F090916202892F8C29B11003C00E9428
:103FF000F60BB8CFE1E0BE12FACF22FDB3CF98178F
:1040000009F4B0CF80936202ADCFB11006C00E9418
:10401000440B8C2D0E94EF0BA5CFF1E0BF1609F4E5
:10402000A1CFF5CFDD2031F025E02B1508F49ACF94
:104030008C2DDDCF34E03B1508F494CFEACFBB20C4
:1040400041F3F9E38F1216C12FEF37EE83E02150D1
:1040500030408040E1F700C000008E2D0E94000C2F
:1040600081CF8F2D86958695837061F0813009F020
:1040700079CFC7019370D11002C090E080E00E9418
:104080006F0870CFC7019370D11002C090E080E03C
:104090000E94850867CF8F2D837091F5D11062CF74
:1040A0004E2D429546954770440F440F8E2D8F70CC
:1040B000042E01C0880F0A94EAF72E2D2071E4FE29
:1040C00007C02FE030E001C0220F4A95EAF72095A3
:1040D0003F2D369536953370323069F050F440916B
:1040E0006302313029F0822B84230E94EB0B3ACFFC
:1040F000842B822BFACF282B809163028227F5CF65
:104100008695DD2011F08F2D8170882309F42ACF48
:104110004E2D429546954770440F440F8E2D8F705B
:10412000042E01C0880F0A94EAF72E2D2071E4FEB8
:1041300007C02FE030E001C0220F4A95EAF7209532
:104140003F2D369536953370323069F050F44091FA
:104150003C04313029F0822B84230E94BD1602CF0B
:10416000842B822BFACF282B80913C048227F5CF19
:10417000FF2DFF70FF2EDD2029F08F2F0E94DE170C
:104180008E2D35CF8E2D0E94EF0B8F2D0E9499170B
:10419000E9CE8E2D22EF8216B1F1281570F030EFA6
:1041A0008316D1F091EF891691F0DD2009F45DC0FE
:1041B000B11087CE8F2D8F712AC0E3EF8E1651F18B
:1041C000F4EF8F12F2CF8091D30282FF2FC08F2D98
:1041D0008F71DD20D9F21BC0DD2081F024E02B158A
:1041E00008F4C0CE2F2D2F7181E090E001C0880F20
:1041F0002A95EAF790913C048927AFCF35E03B152B
:1042000008F4B0CEEFCF8F2D8F71D110BFCF0E94A9
:10421000DE17A8CE80E0DD2009F49FCF9F2D9F718F
:1042200081E001C0880F9A95EAF797CFDD2091F0E1
:104230008F2D8F71F82E0E94DE178091D30282FDA0
:1042400007C0E8E0FE9EC0011124836080935F02F6
:104250008F2DDDCF81E00E94A517F1E0FB1508F05E
:1042600081CE82E00E94A5177DCEBB2041F089332C
:1042700009F4EACEEFE1FEE43197F1F7ECCE8F2DB1
:104280008F7184CFF0E1EF16FFE5FF0609F4F1CB63
:1042900021E1E2162FE5F20609F4F5CBF09256047F
:1042A000E0925504F80180819181909358048093A5
:1042B00057048281882381F010921A03F0EBEF16E5
:1042C000FDE5FF0609F4FCCB08F0DFCB3FEAE3167F
:1042D0003DE5F30609F4EACB97013A9521153F41F4
:1042E00008F0FECBF701FF27E43FF10548F0E93F76
:1042F000F10508F4F7CBEC3A2DE5F20709F466CCAA
:10430000882309F420CCE55AFD45EA30F10508F090
:104310001ACCEC53FC4C0C942A3330E1E3163FE505
:10432000F30609F4ACCB81E1E8168FE5F80609F055
:10433000B5CF82E0A5CB85E0DE01119601900D920C
:104340008A95E1F7F801228189819A8121115FCA5A
:104350000E94880BF82E63CA1F93CF93DF9380913E
:104360002C02807FA9F480912902882389F0809112
:104370005E02D0912D026091270270912802A091D7
:104380002A02B0912B02C62FC72316E0D81304C00F
:10439000DF91CF911F91089590E0109711F0CF3FDA
:1043A00019F401968770F2CF189F9001199F300D74
:1043B0001124F901E25DFD4F41814713F2CF4081A5
:1043C0004613EFCF42814111ECCF438154814A1B08
:1043D0005B0B483C510528F780912C028F7080615F
:1043E00080932C02F901ED5CFD4F80818F7080611C
:1043F000808387E292E00E94CA1BDF91CF911F91D8
:104400000C947E0BAF92BF92CF92DF92EF92FF920D
:104410000F931F93CF93DF93CDB7DEB761970FB69E
:10442000F894DEBF0FBECDBF8C0185E0F801DE0140
:104430001D9601900D928A95E1F7F801E28087E2DE
:10444000A82E82E0B82E60912A0270912B0261158D
:10445000710509F432C19091270240912802892FF9
:1044600084238F3F09F429C120813181C380D48006
:10447000F0902902F601E61BF70BFF2009F4E8C0D3
:1044800080912C02582F507FE83CF10508F0ABC01A
:10449000511177C0FE2C431321C092131FC0E110AD
:1044A0001DC08F70806180932C02C5010E94CA1BC1
:1044B00080912C02F80185838F2D61960FB6F894B8
:1044C000DEBF0FBECDBFDF91CF911F910F91FF9047
:1044D000EF90DF90CF90BF90AF900895CD2829F056
:1044E000822F83238F3F09F003C180E0F82FF17002
:1044F000DF2E80FF3CC080915E0240912D0256E08D
:10450000841315C02D873E878D859E850E941515C5
:10451000292F22952F702230F0F0243018F59F704B
:10452000F1F0F8019581907FD1F4D12C1EC090E07C
:10453000589FF001599FF00D1124E25DFD4F6181FC
:10454000361306C06081261303C06281E6120FC0D5
:1045500001968770D5CF9F7011F0882331F3805E6C
:10456000883018F3C8010E94CA1BFD2CA5CFEE208D
:1045700009F4A2CF80912C02816080932C02F12C4F
:104580009BCF431306C0921304C0F801EE2009F438
:1045900079C0C8010E942115882309F1EE20F9F0A5
:1045A00080912C02803270F02091270230912802F5
:1045B00038872F831986DB86CA868C87CE010796BB
:1045C0000E94CA1B86E0F801A7E2B2E001900D92BA
:1045D0008A95E1F70E94AC21FF24F3946DCFC801C6
:1045E0000E94CA1BF9CF51110AC087E292E00E94D3
:1045F000CA1B86E0F50111928A95E9F7C0CF4313F3
:104600000FC092130DC0E1100BC0F8018583C801E3
:104610000E94CA1B86E0F50111928A95E9F74CCFFA
:10462000C8010E9421158823D1F2EE20C1F28091A9
:104630002C02803238F220912702309128023A83EE
:1046400029831B82DD82CC828E83CE010196B8CF76
:10465000E83CF105F8F6FE2CEE2009F243131FC0EA
:1046600092131DC080912C0280FD10C0982F907F66
:1046700069F0F8018583903F31F0982F907F905F2B
:104680008F70892B8583C8010E94CA1B86E0F801C0
:10469000A7E2B2E001900D928A95E1F70DCFC80133
:1046A0000E94211581118ECF80912C028160809310
:1046B0002C02C8010E94CA1BFFCEEE2009F48FCF46
:1046C000C8010E942115F82E882309F488CF86E0BE
:1046D000F801A7E2B2E001900D928A95E1F780918E
:1046E0002702909128020E9415150E94AC21E4CE69
:1046F00081E08E25FBCE1F93CF93DF93CDB7DEB73E
:1047000067970FB6F894DEBF0FBECDBF4B8B5C8BA7
:104710006D8B7E8B8F8B6111109261021A8A198AC0
:1047200085E0FE017396DE011D9601900D928A953B
:10473000E1F786E0FE013D96DE01179601900D92AD
:104740008A95E1F7CE0107960E940222882389F01C
:1047500016E080915E0290912D0289134BC06796FE
:104760000FB6F894DEBF0FBECDBFDF91CF911F9182
:10477000089586E0FE013796DE01119601900D92B4
:104780008A95E1F78A859B85892B11F38F8198851E
:1047900089238F3FE9F220912D0230E0C901019673
:1047A0008770992740915E024817190681F410928C
:1047B00025040E94160F10922D0210925E0286E0D0
:1047C000E7E2F2E0DF011D928A95E9F7C1CF96E0BA
:1047D000929FD001939FB00D1124A25DBD4FFE01A9
:1047E000319601900D929A95E1F780932D020E94E7
:1047F0007E0BAECF819FC0011124825D9D4F0E9430
:104800000222882309F4ABCF80915E0290E00196EA
:104810008770992780935E029CCFCF93C82F0E9408
:104820008B1A8C2F0E94792F8FE792E00197F1F776
:1048300000C000000E94912FC82F0E94A92F9AE665
:104840009A95F1F700C08C2FCF910895CF93DF9305
:104850000E94F92E269A0E948B1A6AE58AE30E942A
:10486000821B2FEF80E792E0215080409040E1F7DB
:1048700000C0000082E00E940D2483E00E940D240D
:1048800084E00E940D2485E00E940D2486E00E94B1
:104890000D2460E080E10E94821B80E00E940D24D4
:1048A000D82F81E00E940D24C82F0E94A92FD23456
:1048B00019F481E0C13009F080E0817080933D04FB
:1048C000882351F066E08FE00E94821B60E080E563
:1048D000DF91CF910C94821BDF91CF9108951F92AD
:1048E0000F920FB60F9211242F933F934F935F9324
:1048F0006F937F938F939F93AF93BF93CF93DF93E8
:10490000EF93FF93D091E900DF708091EC00C82F06
:10491000C17080FDC0E81092E9008091F000877FAF
:104920008093F00078940E941F0F1092E90080910C
:10493000F00088608093F000CD2BCF70C093E90029
:10494000FF91EF91DF91CF91BF91AF919F918F91A7
:104950007F916F915F914F913F912F910F900FBE7B
:104960000F901F9018951F920F920FB60F9211245F
:104970002F933F934F935F936F937F938F939F9367
:10498000AF93BF93EF93FF938091E10082FF09C043
:104990008091E20082FF05C08091E1008B7F8093CF
:1049A000E1008091DA0080FF24C08091D80080FF70
:1049B00020C08091DA008E7F8093DA008091D90048
:1049C00080FF9DC080E189BD82E189BD09B400FE00
:1049D000FDCF81E08093320480912404811109C0CD
:1049E0000E94AA060E9475078091E200846080936D
:1049F000E2008091E10080FF17C08091E20080FF1B
:104A000013C08091E2008E7F8093E2008091E200EB
:104A100080618093E2008091D80080628093D8000A
:104A200019BC85E0809332048091E10084FF2BC0A3
:104A30008091E20084FF27C080E189BD82E189BDC9
:104A400089B5982F917080FFFBCF8091D8008F7D22
:104A50008093D8008091E1008F7E8093E100809167
:104A6000E2008F7E8093E2008091E200816080937B
:104A7000E20080913304882309F447C084E08093E6
:104A80003204809132048091E10083FF27C080913D
:104A9000E20083FF23C08091E100877F8093E100E3
:104AA00082E080933204109233048091E1008E7F83
:104AB0008093E1008091E2008E7F8093E2008091FC
:104AC000E20080618093E20042E060E080E00E94CA
:104AD00043078091F00088608093F000FF91EF9190
:104AE000BF91AF919F918F917F916F915F914F9106
:104AF0003F912F910F900FBE0F901F90189519BCEA
:104B0000109232041092240474CF8091E30087FD48
:104B100093E090933204B5CF78941F921FB61F9202
:104B200011248F939F93AF93BF9380911D04909115
:104B30001E04A0911F04B09120040196A11DB11D77
:104B400080931D0490931E04A0931F04B09320042F
:104B5000BF91AF919F918F911F901FBE1F9018958D
:104B60009C014FB7F89480911D0490911E04A09170
:104B70001F04B09120044FBF821B930B08952FB7E1
:104B8000F89480911D0490911E04A0911F04B0918F
:104B900020042FBF08956F927F928F929F92AF92C1
:104BA000BF92CF92DF92EF92FF920F931F93CF931A
:104BB000DF933BE6E32E36E0F32E470101E011E000
:104BC000712CAA24A394B12CD8018D918D010E943F
:104BD000A60D00C0E401688026E0C22E21E0D22E9E
:104BE000F601D0E0C0E04191A42FA295AF70B0E0F3
:104BF00090968C9195010C2E01C0220F0A94EAF731
:104C000090E04F7002C0959587954A95E2F780FD38
:104C100089C0622A2196C430D10529F7F80131975D
:104C200080810E94BA0DA0EAAA95F1F7F401808173
:104C3000861519F0608277247394FFEF8F1A9F0A0C
:104C400021E00630120709F0BFCF01E010E0D601E5
:104C50008D916D010E94A60D00C0C8010C2E01C0EF
:104C6000880F0A94EAF7782FEBE6F6E091E0A92E98
:104C700091E0B92E682F6095D5012D915D01822FAD
:104C800082958F7090E0DC0190968C91AF0130811D
:104C900090E02F7002C0959587952A95E2F780FDE8
:104CA00044C0872F832B80833196DA018C9138178B
:104CB00011F077247394B6E0AB16B1E0BB06E1F6D1
:104CC000F601319780810E94BA0DE0EAEA95F1F78A
:104CD0002196C830D10509F0BACFC091D102772012
:104CE00039F181E08093F7010E94BF259093F6018E
:104CF0008093F5018091F5019091F6010E94B02515
:104D00000597D0F0EC2FF0E0EB5FFC4F80E796E0EA
:104D1000D7012D917D0121938A179B07C9F7109226
:104D2000F7010AC02095622275CF862F8323BBCF5F
:104D30008091F7018111DECF0E948A0E182FE09139
:104D4000D102811180C0F0E0EB5FFC4FF89485E068
:104D5000A6E6B2E001900D928A95E1F786E692E030
:104D60000E949306809365027894F894C0906B0239
:104D7000D0906C02E0906D02F0906E028091F8018C
:104D80009091F901A091FA01B091FB01C816D906E2
:104D9000EA06FB06D1F0C092F801D092F901E09248
:104DA000FA01F092FB010E948A0E81110EC00E944E
:104DB0004908C61AD70AE80AF90AC092CC02D0926A
:104DC000CD02E092CE02F092CF027894F8948091D6
:104DD0007602882321F184FF04C09091770290939A
:104DE0002A0380FF0DC080916F0280FF29C090913F
:104DF0000B04916090930B0460E086950E94461628
:104E00008091760281FF09C020E04091720260919A
:104E10007102809170020E9473151092760278944C
:104E2000872DDF91CF911F910F91FF90EF90DF9031
:104E3000CF90BF90AF909F908F907F906F9008958C
:104E40000E94C412DDCFA0E7B6E085E0ED01199223
:104E50008A95E9F7CE2FD0E0CB5FDC4F80916A06D0
:104E60008A30A8F564EF79E1CE010E94CF0D882346
:104E700009F449C06FE879E1CE010E94CF0D882383
:104E800009F441C069E279E1CE010E94CF0D882387
:104E9000D1F110926A0681E08093FE01C091D002A8
:104EA000D0E0CB5FDC4F45E050E060E776E0CE013C
:104EB0000E944033892B09F4B3CF85E0E0E7F6E0A8
:104EC000DE0101900D928A95E1F7712EA9CF8091B4
:104ED000FC019091FD010E94B025843F914010F6A5
:104EE0008091FE01882309F49BCF1092FE01E0918E
:104EF000D002F0E0EB5FFC4F95E0DF011D929A9548
:104F0000E9F7782E8DCF80916A068F3F31F08F5F61
:104F100080936A068A3008F4BECF0E94BF25909322
:104F2000FD018093FC01DCCF1F921FB61F9211245C
:104F30008F939F93AF93BF9380911C04811113C0F3
:104F400080911D0490911E04A0911F04B091200433
:104F50004196A11DB11D80931D0490931E04A09342
:104F60001F04B0932004BF91AF919F918F911F9028
:104F70001FBE1F901895CDB7DEB7AF970FB6F89448
:104F8000DEBF0FBECDBF84B7877F84BF0FB6F89456
:104F9000A895809160008861809360001092600005
:104FA0000FBE80E890E00FB6F89480936100909374
:104FB00061000FBE85B7806885BF85B7806885BFF3
:104FC00080E699E09093EB018093EA010E94AA06A3
:104FD0000E9475078091E20084608093E2007894DB
:104FE000809132048823A1F01091E9001F70909104
:104FF000EC00892F817090FD80E8182B1092E90059
:105000008091E80083FD0E941F0F1F701093E9003C
:1050100082E084BD93E095BD9AEF97BD80936E00CA
:105020001092CC021092CD021092CE021092CF02BA
:105030000E944815811102C00E94A4140E94BE0E55
:105040008093000180910001882309F475C01092BB
:105050008E0185E280938F010E948A0E81110E9449
:105060003B31809106010E94BA0D809107010E9498
:10507000BA0D809108010E94BA0D809109010E9429
:10508000BA0D01E011E056E0E52E51E0F52ED80111
:105090008D918D010E94BA0DE016F106C1F7809145
:1050A000000195E0811190E09093D10285E0891B89
:1050B0008093D0020E948A0E811102C00E943E316C
:1050C000EBE6F6E085E796E0A5E0B3E011921D92ED
:1050D0008E179F07D9F70E94801A811102C00E9483
:1050E0000E1882E090E00E9456338093FA0284E02A
:1050F00090E00E945633182F82E290E00E945633CF
:10510000982F812F9093D3028093D2020E94CB25B7
:10511000EFE3FCE93197F1F700C000000E94CB25D6
:105120008091050380FF0CC06FEF7FEF90E080E07F
:105130000E9488330E94380885E280938E018ACFCE
:1051400083E090E00E9456330E94EB0B80913C0478
:105150000E948C160E948A0E882309F450C280E0B7
:105160008093F50280E880935F040E94D32F6DE066
:1051700070E084E792E00E94B213892BE9F58091F8
:10518000F50263E070E081FD3CC281E792E00E949D
:10519000B213892B89F56DE070E081E692E00E9400
:1051A000B213892B49F50E944908605A75418F4F07
:1051B0009F4F609310047093110480931204909396
:1051C0001304E2E6F4E080E092E0DF019C011D922E
:1051D00021503040E1F7F0936906E09368068FEFC5
:1051E0009FEF909361048093600481E080931504A5
:1051F000809314041092F6028091D402811136C07B
:105200000E94801A811104C00E940E180E94F61795
:1052100088E090E00E945E3360930B0470930C046E
:1052200080930D0490930E048091290383608093F2
:1052300029036E7F71F40E94F61788E090E00E94C7
:105240005E3360930B0470930C0480930D04909371
:105250000E040E94A00880910B0480FF04C060E04F
:1052600086950E94461681E08093D4020E942624EF
:105270000E948A0E81112EC08BEF9EE090936301F5
:105280008093620126E130E030935E0120935D015E
:1052900086E390E090936101809360014CE459E0D3
:1052A00050936D0140936C01309368012093670126
:1052B00090936B0180936A0143EB5BE1509377011C
:1052C00040937601309372012093710190937501A0
:1052D000809374010E94801A882389F08FE090E007
:1052E0000E945E338B01862F8F770E949A1B001FCE
:1052F0000027001F1370110F102B10934F040E94F2
:10530000D50E81E892E090932C0380932B0388E7DD
:1053100091E0909319048093180438E1232E312CE6
:105320004FE0842E43E0942E8091320400E112E19C
:10533000853009F4A5C10E94CB25D82E81110E9489
:1053400049084FEC51E05EA74DA74BEF52E0AFECA0
:10535000B1E025E033E010E000E0B02EF901F1907B
:105360009F018D91F822FA018191AF018F1509F407
:1053700098C18F25C12CEE24E394982F9E2109F427
:105380008BC10E948A0E882399F0C9A2BAA2FE207E
:1053900081E009F480E08BA30E94BF258160782F13
:1053A0009DA38CA349A15AA16BA18DA10E947B232F
:1053B000F801E550FD4F8081E826E08280911504D8
:1053C000882351F18091F7029091F8020E94B02554
:1053D000C29708F07DC120916004309161042115CD
:1053E000310509F04AC2809114048823A9F00E9473
:1053F0004908009110041091110420911204309179
:105400001304601B710B820B930B6F3F7F4F8F4F09
:105410009F4710F40E94E213D1100E94FD130E94D6
:10542000CE160E94AE0E9091F902891721F00E94CB
:10543000AE0E8093F90280913204843009F4EBC2FD
:105440000E948A0E882309F46FCF0E944908209198
:10545000150321116FC000911103109112032091C7
:105460001303309114036B017C01C01AD10AE20AC4
:10547000F30A97018601043F11402105310508F424
:1054800059C0609311037093120380931303909398
:10549000140380910F0390911003019690931003D1
:1054A00080930F0319828E010F5F1F4F21E050E0A0
:1054B00040E060E088E00E94C918811106C0809138
:1054C0000F03909110030A97ACF181E080931503CC
:1054D00080933E049981911101C080E080933F0444
:1054E00080913D0410E0882329F00E94BE0E11E057
:1054F000811112E080913F04882309F455C40E9471
:10550000BE0E811153C482E0182B86E290E00E9407
:105510005633C82ED12CF12CE12CC701B6016C7F7B
:10552000612B6C157D058E059F0511F00E94881476
:105530000E94D50E80913F04882309F4F5CE0E9485
:1055400049086B017C018091160390911703A0918B
:105550001803B0911903A7019601281B390B4A0BB8
:105560005B0BDA01C9010497A105B10580F119822D
:105570001A821B821C828E010F5F1F4F24E050E0B5
:1055800040E060E089E00E94C9188823C1F0698189
:105590007A8180914404909145040E94930D9093E8
:1055A0004504809344046B817C81809146049091F2
:1055B00047040E94930D9093470480934604C09241
:1055C0001603D0921703E0921803F092190380910A
:1055D0004904882309F4A8CE80914804898310E007
:1055E00000E020E0AE014F5F5F4F61E08AE00E9483
:1055F000C918882309F498CE1092490495CE82E008
:10560000AFCD8EE692E0C3CD80913204843031F18B
:105610000E94E2130E94CE1610921C0430E40FB6D2
:10562000F894A895209260000FBE3093600083B775
:10563000817F846083BF83B7816083BF78948895BE
:1056400083B78E7F83BF0FB6F894A89580916000D2
:10565000886180936000109260000FBE80913104D9
:10566000882371F00E94CB25AFECB1E0E5E0F3E0D8
:1056700081919D91892309F09BC38E169F06C1F7E6
:1056800080913204853009F4BFCF109225040E9426
:10569000160F0E94AE0E4FCEC394EE0CF8E0CF1260
:1056A0006CCE0F5F1F4F0A30110509F056CE8FEFF9
:1056B0008EA38FA318A60E94BF258160782F9AA77A
:1056C00089A74EA15FA168A58AA50E947B2376CEFB
:1056D0000E94BF259093F8028093F70222E6E22E03
:1056E00024E0F22EF0926906E09268060E948A0E8B
:1056F000882309F4BDC010915504012F8BEC92E072
:105700000E945A13809158048F708A3008F0A2C00A
:10571000805D0E94D91287EC92E00E945A1380911A
:1057200057048F708A3008F097C0805D0E94D912AC
:10573000002309F497C084EC92E00E945A13812F51
:1057400082958F708A3008F089C0805D0E94D912DE
:10575000812F8F708A3008F083C0805D0E94D9123B
:105760008CEF810F853308F07DC080EC92E00E94C1
:105770005A13212F2450330BF901E557FD4F849123
:105780000E94D91210918B0100918C01F0901A03A4
:1057900081EF92E00E945A1380915B040E94680D91
:1057A0000E949A1380915C040E94680D0E949A13D3
:1057B00080915E040E94680D0E949A1380915D049E
:1057C0000E94680D0E949A1388EE92E00E945A137C
:1057D00080914804811101C087E00E94680D019604
:1057E0000E949A1382EE92E00E945A1380914A041A
:1057F00081113CC080E30E94D9128EED92E00E949C
:105800005A1380914F04811101C087E0805D0E948E
:10581000D9128AED92E00E945A138F2D0E94680DD2
:105820000E949A1387ED92E00E945A13802F0E94E3
:10583000680D0E949A1384ED92E00E945A13812F02
:105840000E94680D0E949A1380911504882309F420
:10585000CACDC1CD895A5DCF895A68CF895A76CFD2
:10586000895A7CCF81E00E9468138CCF81E3C3CF3B
:1058700087EF92E00E945A13E7CF8091F60261E031
:1058800070E08111B0CD082F10E07B01082E02C01E
:10589000EE0CFF1C0A94E2F7A9014E215F21452B73
:1058A00009F447C09091F50290FD45C08295880F9C
:1058B00080768093860198013695279536952795B1
:1058C00020938901815E8093870110928A0124E6EA
:1058D00030E047E050E064E871E088E70E94823001
:1058E000892B09F080CDA80115E0440F551F1A95AA
:1058F000E1F78091F50280FD2CC04E595B4F04E624
:1059000010E020E230E060E488E70E94A930892BB3
:1059100009F069CD0E94FD13E094F0948091600439
:1059200090916104E822F922F0926104E09260040F
:105930005ACD8F5FA8CF880F880F880F809386017C
:1059400010928901895F8093870183E080938A01A7
:10595000BECFE5EDF2E080E2DF011D928A95E9F726
:105960000BEC11E0E7ECF1E0FCA7EBA7BFEC4B2E52
:10597000B1E05B2ED801ED918D01ABA5BCA56D9179
:10598000BCA7ABA7640F752F711D6E597B4FF0E05C
:10599000EB52FD4F30E020E0A7E06A2E621ACC24E3
:1059A000C394022E01C0CC0C0A94EAF75B0190E08C
:1059B000D5018D915D018C21A62DA91BA770AFA7E4
:1059C0000A2E000CBB0B782E0FA401C0770C0A9492
:1059D000EAF77FA6B195A195B109A770BB2701C0D1
:1059E0008695AA95EAF7782A8081782A70829F5F47
:1059F0009830F1F62F5F3F4F31962830310561F630
:105A00004016510609F0B6CF04E610E020E230E07F
:105A100045ED52E078CF83E08093E9008091E80083
:105A200082FF0ECD8091E80090E085FF0BC00E94C0
:105A3000C90630E2E32EF12C8E010F5F1F4F882341
:105A4000E1F091E08091E8008B778093E800992362
:105A500009F4F6CCE981E150E33108F078C0F0E0D8
:105A6000E253FC4C0C942A338091F100D8018D93C1
:105A70008D01B1E0EB1AF10821F38091E80085FD7A
:105A8000F3CF8091E8008B778093E8000E94C906ED
:105A9000882399F3D6CF1A8289E08B8311C08A813B
:105AA000823009F49DC1833091F1813009F04FC0FB
:105AB0000E9449080E9430336B837C838D839E83D0
:105AC00080913204843009F0BBCC1091E9001F7042
:105AD0009091EC00892F817090FD80E8182B82E076
